:100000000C9446000C945D000C945D000C945D0013
:100010000C945D000C945D000C945D000C945D00EC
:100020000C945D000C945D000C945D000C945D00DC
:100030000C945D000C945D000C945D000C945D00CC
:100040000C945D000C945D000C945D000C945D00BC
:100050000C945D000C945D000C945D000C945D00AC
:100060000C945D000C945D000C945D000C945D009C
:100070000C945D000C945D000C945D000C945D008C
:100080000C945D000C945D000C945D0011241FBE67
:10009000CFEFD0E1DEBFCDBF11E0A0E0B1E0ECE5F5
:1000A000FAE000E00BBF02C007900D92A230B1074A
:1000B000D9F70E94AE010C942C050C9400004091DD
:1000C00000015091010181E06DEE71E00E945C033E
:1000D000409100015091010182E068E172E00E94CC
:1000E0005C03409100015091010183E064E171E003
:1000F0000E945C030895409100015091010181E04C
:1001000063E571E00E945C034091000150910101A0
:1001100082E06BE871E00E945C0340910001509125
:10012000010183E066E870E00E945C03089540915D
:1001300000015091010181E06DEE71E00E945C03CD
:10014000409100015091010182E068E172E00E945B
:100150005C03409100015091010183E066E870E08A
:100160000E945C030895409100015091010181E0DB
:100170006DEE71E00E945C0340910001509101011D
:1001800082E068E172E00E945C03409100015091BE
:10019000010183E06DE170E00E945C0308954091ED
:1001A00000015091010181E063E471E00E945C0371
:1001B000409100015091010182E064E172E00E94EF
:1001C0005C03409100015091010183E06AE371E01A
:1001D0000E945C030895409100015091010184E068
:1001E00063E472E00E945C034091000150910101C0
:1001F00085E067EF71E00E945C034091000150913F
:10020000010186E06AEB71E00E945C030895409171
:1002100000015091010184E06BEE72E00E945C03EA
:10022000409100015091010185E069E571E00E9473
:100230005C03409100015091010186E062E372E0AD
:100240000E945C030895409100015091010184E0F7
:100250006BEE72E00E945C0340910001509101013D
:1002600085E067EF71E00E945C03409100015091CE
:10027000010186E06AEB71E00E945C030895409101
:1002800000015091010184E064E573E00E945C0389
:10029000409100015091010185E067EF71E00E94FB
:1002A0005C03409100015091010186E06AEB71E02E
:1002B0000E945C030895409100015091010184E087
:1002C00068E572E00E945C034091000150910101D9
:1002D00085E069EB71E00E945C0340910001509160
:1002E000010186E06BE572E00E945C030895409195
:1002F00000015091010181E063E471E00E945C0320
:10030000409100015091010182E064E172E00E949D
:100310005C03409100015091010183E06AE371E0C8
:100320000E945C03409100015091010184E068E566
:1003300072E00E945C03409100015091010185E050
:1003400069EB71E00E945C03409100015091010152
:1003500086E06BE572E00E945C0308951F93CF93E3
:10036000DF930E94AA040E941E058FEF8ABB80EFD4
:1003700084BBF89481E060E070E04FEF53E00E94AE
:10038000030382E060E070E04FEF53E00E9403035C
:1003900083E060E070E04FEF53E00E94030384E0ED
:1003A00060E070E04FEF53E00E94030385E060E0FF
:1003B00070E04FEF53E00E94030386E060E070E0DE
:1003C0004FEF53E00E9403038CE291E020E931E01B
:1003D000F9013197F1F70197D9F781E060E070E01A
:1003E0004FEF53E00E94030382E060E070E04FEFC4
:1003F00053E00E94030383E060E070E04FEF53E0BE
:100400000E94030384E060E070E04FEF53E00E943D
:10041000030385E060E070E04FEF53E00E940303C8
:1004200086E060E070E04FEF53E00E9403038CE24F
:1004300091E020E931E0F9013197F1F70197D9F71F
:100440000E9477018CE291E020E931E0F9013197D7
:10045000F1F70197D9F70E9477018CE291E020E94A
:1004600031E0F9013197F1F70197D9F70E9477014F
:1004700084EF91E020E931E0F9013197F1F701973C
:10048000D9F7C0E9D1E00E94F104182F893309F4AB
:1004900094C08A33C8F4833309F45FC0843350F4C2
:1004A000813309F43EC0823308F049C0803309F03B
:1004B000A1C029C0853309F483C0853308F45BC02B
:1004C000873309F097C085C0873609F491C0883614
:1004D00050F4823609F489C0853609F480C081362B
:1004E00009F088C073C08A3609F46DC08B3620F4D9
:1004F000893609F07FC070C08D3609F473C080372B
:1005000009F078C046C088E790E068E770E00E9494
:10051000BA048CEB92E0FE013197F1F70197D9F71D
:1005200045C088E89FEF68E87FEF0E94BA048CEB33
:1005300092E0FE013197F1F70197D9F737C088E8CB
:100540009FEF68E770E00E94BA0488E592E0FE0140
:100550003197F1F70197D9F729C088E790E068E86B
:100560007FEF0E94BA0488E592E0FE013197F1F72F
:100570000197D9F71BC08CED90E06CED70E00E9404
:10058000BA048CEB92E0FE013197F1F70197D9F7AD
:100590000DC086E59FEF66E57FEF0E94BA048CEB05
:1005A00092E0FE013197F1F70197D9F780E090E0F2
:1005B00060E070E00E94BA041DC00E945B011AC096
:1005C0000E943F0117C00E94230114C00E9407012E
:1005D00011C00E94EB000EC00E94CF000BC00E9411
:1005E000B30008C00E94970005C00E947B0002C0B3
:1005F0000E945F00812F90E00E94E90444CF5D9B40
:10060000FECF8CB90895E82F84E04030580710F0F1
:100610004FEF53E09B0184E06030780710F02FEF3C
:1006200033E0652F942F432F809165008F7E809358
:100630006500809165008860809365005E9A5D9B8F
:10064000FECF8FEF8CB95D9BFECF8FEF8CB95D9B9A
:10065000FECFECB95D9BFECF87E08CB95D9BFECFF2
:1006600083E08CB95D9BFECF86E08CB95D9BFECFAD
:100670002CB95D9BFECF4CB95D9BFECF9CB95D9BB9
:10068000FECF6CB95D9BFECFE05FE20FE90FE40F98
:10069000E60FE095ECB95E9BFECF8091650080612E
:1006A0008093650080916500877F8093650080E47A
:1006B0009FE10197F1F70895E82F84E04030580753
:1006C00010F04FEF53E09B0184E06030780710F0AA
:1006D0002FEF33E0652F942F432F809165008F7E9D
:1006E00080936500809165008860809365005E9AC4
:1006F0005D9BFECF8FEF8CB95D9BFECF8FEF8CB9EA
:100700005D9BFECFECB95D9BFECF87E08CB95D9B16
:10071000FECF83E08CB95D9BFECF8EE18CB95D9BF3
:10072000FECF2CB95D9BFECF4CB95D9BFECF9CB933
:100730005D9BFECF6CB95D9BFECFE85DE20FE90FDC
:10074000E40FE60FE095ECB95E9BFECF809165006B
:1007500080618093650080916500877F809365004C
:1007600080E49FE10197F1F70895982F809165004B
:100770008F7E80936500809165008860809365001E
:100780005E9A5D9BFECF8FEF8CB95D9BFECF8FEFA6
:100790008CB95D9BFECF9CB95D9BFECF87E08CB989
:1007A0005D9BFECF84E08CB95D9BFECF8EE18CB962
:1007B0005D9BFECF6CB95D9BFECF7CB95D9BFECF90
:1007C0004CB95D9BFECF5CB95D9BFECF975D960FEC
:1007D000940F970F950F90959CB95E9BFECF8091DB
:1007E0006500877F809365008091650080618093BC
:1007F000650080E49FE10197F1F70895809165001D
:100800008F7E80936500809165008860809365008D
:100810005E9A5D9BFECF8FEF8CB95D9BFECF8FEF15
:100820008CB95D9BFECF8EEF8CB95D9BFECF82E0D5
:100830008CB95D9BFECF85E08CB95D9BFECF8AEFC6
:100840008CB95E9BFECF80916500877F80936500A9
:100850008091650080618093650080E49FE101974D
:10086000F1F70895482F77FF06C088279927861B40
:10087000970B51E002C0CB0150E09C0184E0203096
:10088000380710F02FEF33E0952F990F990F80E084
:10089000822B932B292F982F809165008F7E809338
:1008A0006500809165008860809365005E9A5D9B1D
:1008B000FECF8FEF8CB95D9BFECF8FEF8CB95D9B28
:1008C000FECF4CB95D9BFECF85E08CB95D9BFECF22
:1008D00083E08CB95D9BFECF80E28CB95D9BFECF3F
:1008E0009CB95D9BFECF2CB95D9BFECF485D490F47
:1008F000420F40954CB95E9BFECF809165008061B0
:100900008093650080916500877F8093650080E417
:100910009FE10197F1F7089582B18F7C82B983B18D
:10092000806383B90895109261001092620080E4A0
:1009300087B986E886B90895806487B9369A349B6A
:10094000FECF94B185B1349A382F20E0290F311DA4
:10095000C901089580EF84BB87B3806687BB82EAB4
:100960008FBD8AE18EBD10927A008CE291E097BD36
:1009700086BD08959C0197FD0DC077FD03C080EAF8
:1009800085BB16C0009761F080E685BB70956195C8
:100990007F4F0EC0161617061CF480E985BB05C0F4
:1009A00080E585BB709561957F4F309521953F4FD0
:1009B0003BBD2ABD79BD68BD089510929B0088E1BA
:1009C00080939A0086E080939D0087E6809399004B
:1009D0000895982F80919B0085FFFCCF90939C00F9
:1009E000089580919B0087FFFCCF80919C00089523
:1009F00082B18F7C82B983B1806383B982E08BB985
:100A00001092900081E089B988E18AB986E08093EC
:100A1000950010981898119A199AA4E6B0E08C9154
:100A200088608C93E5E6F0E08081877F80838C91FD
:100A300080618C9380818061808308950E94F80496
:100A400010929B0088E180939A0086E080939D003D
:0C0A500087E6809399000895F894FFCF8A
:020A5C0058023E
:00000001FF
