:100000000C9446000C945D000C945D000C945D0013
:100010000C945D000C945D000C945D000C945D00EC
:100020000C945D000C945D000C945D000C945D00DC
:100030000C945D000C945D000C945D000C945D00CC
:100040000C945D000C945D000C945D000C945D00BC
:100050000C945D000C945D000C945D000C945D00AC
:100060000C945D000C945D000C945D000C945D009C
:100070000C945D000C945D000C945D000C945D008C
:100080000C945D000C945D000C945D0011241FBE67
:10009000CFEFD0E1DEBFCDBF11E0A0E0B1E0E8E8F6
:1000A000F7E100E00BBF02C007900D92A030B1074E
:1000B000D9F70E949E070C94C20B0C94000089E0B3
:1000C00060E973E04CE251E00E9483098AE066E552
:1000D00070E04CE251E00E9483098BE06EE470E036
:1000E0004CE251E00E9483098CE061EB73E04CE24A
:1000F00051E00E94830988E59BE120E931E0F901A4
:100100003197F1F70197D9F7089583E067EA72E034
:100110004CE251E00E94830984E06EE372E04CE21D
:1001200051E00E94830980E29EE420E931E0F90178
:100130003197F1F70197D9F781E06AE471E04CE279
:1001400051E00E94830982E06FE972E04CE251E0E5
:100150000E94830983E065E173E04CE251E00E9474
:10016000830984E06FEF71E04CE251E00E94830963
:1001700085E06CE272E04CE251E00E94830986E087
:1001800062E672E04CE251E00E94830980E29EE464
:1001900020E931E0F9013197F1F70197D9F781E0D2
:1001A00064E471E04CE251E00E94830982E064E67D
:1001B00072E04CE251E00E94830983E069E873E059
:1001C0004CE251E00E94830984E066EA71E04CE26F
:1001D00051E00E94830985E061E672E04CE251E063
:1001E0000E94830986E062E572E04CE251E00E94E1
:1001F000830988E99AE320E931E0F9013197F1F7C1
:100200000197D9F787E06EED71E04CE251E00E9472
:10021000830989E06BE072E04CE251E00E948309BF
:1002200080E197E220E931E0F9013197F1F7019798
:10023000D9F7089587E06DEB71E04CE251E00E9440
:10024000830988E067E671E04CE251E00E9483098F
:1002500089E06CE272E04CE251E00E9483098AE09E
:1002600060E872E04CE251E00E94830988E893E183
:1002700020E931E0F9013197F1F70197D9F70895B5
:1002800081E061E371E04CE251E00E94830982E089
:1002900061E872E04CE251E00E94830983E063E38D
:1002A00071E04CE251E00E94830984E060E074E078
:1002B0004CE251E00E94830985E063E472E04CE285
:1002C00051E00E94830986E060E972E04CE251E06F
:1002D0000E94830988E99AE320E931E0F901319726
:1002E000F1F70197D9F7089581E069ED71E042E3F4
:1002F00050E00E94830982E06BEC73E04EE551E030
:100300000E94830984E062E373E04CE251E00E94C2
:10031000830985E063EF70E04EE551E00E948309B8
:1003200086E069EF71E042E350E00E94830908959E
:1003300084E062E373E04CE251E00E94830985E0CF
:1003400063EF70E04EE551E00E94830986E069EFBB
:1003500071E042E350E00E948309089581E069ED75
:1003600071E042E350E00E94830982E06BEC73E0AD
:100370004EE551E00E94830983E06FEC71E04CE2AE
:1003800051E00E948309089587E06DEB71E04CE233
:1003900051E00E94830988E067E671E04CE251E099
:1003A0000E94830989E06CE272E04CE251E00E9415
:1003B00083098AE060E872E04CE251E00E94830920
:1003C00088EF9AE220E931E0F9013197F1F70197DE
:1003D000D9F781E061E171E04CE251E00E948309CC
:1003E00082E066E672E04CE251E00E94830983E01D
:1003F0006CE972E04CE251E00E94830984E069EB11
:1004000072E04CE251E00E94830985E069E572E008
:100410004CE251E00E94830986E06BE972E04CE215
:1004200051E00E94830988E99AE320E931E0F9016B
:100430003197F1F70197D9F7089584E069EF71E0FA
:100440004CE251E00E94830985E06DE372E04CE2EA
:1004500051E00E94830986E069EF71E04CE251E0CF
:100460000E948309089581E069ED71E04CE251E05A
:100470000E94830982E068E972E04CE251E00E9448
:10048000830983E06AE173E04CE251E00E94830952
:10049000089581E06AE271E04CE251E00E94830934
:1004A00082E067E772E04CE251E00E94830983E05A
:1004B0006AE073E04CE251E00E94830980E197E238
:1004C00020E931E0F9013197F1F70197D9F781E09F
:1004D00063ED71E04CE251E00E94830982E066E244
:1004E00073E04CE251E00E94830983E062E073E034
:1004F0004CE251E00E9483090895EF92FF920F931E
:100500001F9389EE92E06CEF73E046EF51E026E531
:1005100033E001E511E0FFE9EF2EF2E0FF2E0E944B
:10052000B30A85E391E065E573E045E052E028E138
:1005300033E007E810E0EBEFEE2EF12C0E94B30A57
:1005400089ED91E063EC73E044E052E027E133E0B1
:1005500009ED10E0B2EDEB2EB1E0FB2E0E94B30AE4
:100560008AEB90E060E972E04FE253E020EE31E088
:1005700001E011E0AEECEA2EA1E0FA2E0E94B30AEF
:1005800082EB91E066E372E043EB52E028E732E071
:1005900009EC11E0FFECEF2EF1E0FF2E0E94B30A10
:1005A00085ED91E064E273E04FEB52E02BE532E041
:1005B0000EE912E0EDECEE2EE1E0FE2E0E94B30A11
:1005C00086ED91E06DEB73E04EEF51E022EE31E00D
:1005D0000BE212E0B3E1EB2EB3E0FB2E0E94B30A74
:1005E00086ED91E06AE173E044EA52E020E732E010
:1005F00008E812E0A3E0EA2EA2E0FA2E0E94B30A75
:1006000085EE90E063E672E049E852E023E332E0F1
:1006100009E512E0F1EEEF2EF2E0FF2E0E94B30AA0
:100620008EEC91E06FE272E049EB52E02EE732E0AF
:1006300007E911E0E7EEEE2EE1E0FE2E0E94B30A9C
:100640008EEC91E068EA72E041EA52E023E132E0A8
:1006500002E312E0B8EEEB2EB1E0FB2E0E94B30AEB
:100660008EEC91E069EA72E04CE053E02CE832E075
:1006700003E312E00E94B30A8EED90E06EE772E0B1
:1006800043EF52E023E932E007E312E0A7EFEA2E5E
:10069000A2E0FA2E0E94B30A86E691E06EED73E0C6
:1006A0004EEF51E020E233E002ED10E0F6E6EF2EEF
:1006B000F2E0FF2E0E94B30A8DEC90E060E872E059
:1006C00047E153E02EED31E00CE212E0EDEDEE2ECD
:1006D000E1E0FE2E0E94B30A88EE91E06FEA73E03B
:1006E0004AE153E021ED30E00BE212E00E94B30A50
:1006F0008DEC90E060E872E047E153E02CED31E0F2
:100700000CE212E00E94B30A81E391E060E972E03A
:1007100042E853E02FE831E003E312E0B9E7EB2EC3
:10072000B2E0FB2E0E94B30A80ED97E020E931E0B1
:10073000F9013197F1F70197D9F781E391E061E988
:1007400072E04EEC52E029E532E003E312E0A9E763
:10075000EA2EA2E0FA2E0E94B30A80ED97E020E98B
:1007600031E0F9013197F1F70197D9F781E391E091
:1007700060E972E042E853E02FE831E003E312E081
:10078000F9E7EF2EF2E0FF2E0E94B30A80ED97E02A
:1007900020E931E0F9013197F1F70197D9F781E3C9
:1007A00091E061E972E04EEC52E029E532E003E3CA
:1007B00012E0E9E7EE2EE2E0FE2E0E94B30A80EDA1
:1007C00097E020E931E0F9013197F1F70197D9F786
:1007D0001F910F91FF90EF900895EF92FF920F936A
:1007E0001F938C017B018DE0B8010E94590A8EE0B5
:1007F000B8010E94590A8BE0B7010E94590A8CE0A7
:10080000B7010E94590A1F910F91FF90EF90089530
:1008100081E066EC71E04CE251E00E94830982E0E5
:100820006BEE72E04CE251E00E94830983E062EFDC
:1008300071E04CE251E00E94830984E067E173E0DB
:100840004CE251E00E94830985E061EE71E04CE2E8
:1008500051E00E94830986E065E072E04CE251E0DD
:100860000E94830987E06DE372E04CE251E00E9450
:10087000830988E06EED71E04CE251E00E9483094B
:1008800089E068EB71E04CE251E00E9483098AE064
:1008900063E272E04CE251E00E94830980EA9FE04B
:1008A00020E931E0F9013197F1F70197D9F780E9B3
:1008B00091E060E77EEF0E94ED0381E066EC71E07D
:1008C0004CE251E00E94830982E069EC72E04CE264
:1008D00051E00E94830983E061E771E04CE251E05E
:1008E0000E94830984E066EB72E04CE251E00E94D2
:1008F000830985E066EF71E04CE251E00E948309D4
:1009000086E061E072E04CE251E00E94830980EAF7
:100910009FE020E931E0F9013197F1F70197D9F72C
:1009200087E067E872E04CE251E00E94830988E0CA
:1009300066E272E04CE251E00E94830989E06EEFCA
:1009400071E04CE251E00E9483098AE06FE572E0B9
:100950004CE251E00E94830988E59BE120E931E007
:10096000F9013197F1F70197D9F781E066EC71E071
:100970004CE251E00E94830982E06BEE72E04CE2AF
:1009800051E00E94830983E062EF71E04CE251E0A4
:100990000E94830984E067E173E04CE251E00E9429
:1009A000830985E061EE71E04CE251E00E94830929
:1009B00086E065E072E04CE251E00E94830987E046
:1009C0006DE372E04CE251E00E94830988E06EED35
:1009D00071E04CE251E00E94830989E068EB71E02C
:1009E0004CE251E00E9483098AE063E272E04CE24B
:1009F00051E00E94830988EB9BE020E931E0F90196
:100A00003197F1F70197D9F781E066EC71E04CE29C
:100A100051E00E94830982E067ED72E04CE251E010
:100A20000E94830983E062E572E04CE251E00E949B
:100A3000830984E064E973E04CE251E00E94830999
:100A400085E061EE71E04CE251E00E94830986E0AE
:100A500064E072E04CE251E00E94830980EA9FE08A
:100A600020E931E0F9013197F1F70197D9F787E0F3
:100A700068ED71E04CE251E00E94830988E06CE788
:100A800071E04CE251E00E94830989E06CE571E07D
:100A90004CE251E00E9483098AE063EC71E04CE291
:100AA00051E00E94830988E59BE120E931E0F901EA
:100AB0003197F1F70197D9F781E066EC71E04CE2EC
:100AC00051E00E94830982E06BEE72E04CE251E05B
:100AD0000E94830983E062EF71E04CE251E00E94E2
:100AE000830984E067E173E04CE251E00E948309EE
:100AF00085E061EE71E04CE251E00E94830986E0FE
:100B000065E072E04CE251E00E94830987E06DE30A
:100B100072E04CE251E00E94830988E06EED71E0E2
:100B20004CE251E00E94830989E068EB71E04CE2FD
:100B300051E00E9483098AE063E272E04CE251E0F6
:100B40000E94830980EA9FE020E931E0F9013197B2
:100B5000F1F70197D9F781E066EC71E04CE251E0E2
:100B60000E94830982E069EC72E04CE251E00E944D
:100B7000830983E061E771E04CE251E00E94830960
:100B800084E066EB72E04CE251E00E94830985E06C
:100B900066EF71E04CE251E00E94830986E061E07B
:100BA00072E04CE251E00E94830980EA9FE020E974
:100BB00031E0F9013197F1F70197D9F787E067E85C
:100BC00072E04CE251E00E94830988E066E272E044
:100BD0004CE251E00E94830989E06EEF71E04CE243
:100BE00051E00E9483098AE06FE572E04CE251E037
:100BF0000E94830980EA9FE020E931E0F901319702
:100C0000F1F70197D9F781E066EC71E04CE251E031
:100C10000E94830982E06BEE72E04CE251E00E9498
:100C2000830983E062EF71E04CE251E00E948309A6
:100C300084E067E173E04CE251E00E94830985E0C3
:100C400061EE71E04CE251E00E94830986E065E0CC
:100C500072E04CE251E00E94830987E06DE372E0AC
:100C60004CE251E00E94830988E06EED71E04CE2B5
:100C700051E00E94830989E068EB71E04CE251E0A9
:100C80000E9483098AE063E272E04CE251E00E9434
:100C9000830988EB9BE020E931E0F9013197F1F716
:100CA0000197D9F781E066EC71E04CE251E00E94D7
:100CB000830982E067ED72E04CE251E00E94830913
:100CC00083E062E572E04CE251E00E94830984E037
:100CD00064E973E04CE251E00E94830985E061EE33
:100CE00071E04CE251E00E94830986E064E072E02A
:100CF0004CE251E00E94830980EA9FE020E931E064
:100D0000F9013197F1F70197D9F787E068ED71E0C4
:100D10004CE251E00E94830988E06CE771E04CE20C
:100D200051E00E94830989E06CE571E04CE251E0FA
:100D30000E9483098AE063EC71E04CE251E00E947A
:100D4000830988E59BE120E931E0F9013197F1F76A
:100D50000197D9F781E066EC71E04CE251E00E9426
:100D6000830982E06BEE72E04CE251E00E9483095D
:100D700083E062EF71E04CE251E00E94830984E07D
:100D800067E173E04CE251E00E94830985E061EE87
:100D900071E04CE251E00E94830986E065E072E078
:100DA0004CE251E00E94830987E06DE372E04CE27F
:100DB00051E00E94830988E06EED71E04CE251E061
:100DC0000E94830989E068EB71E04CE251E00E94E7
:100DD00083098AE063E272E04CE251E00E948309F9
:100DE00080EA9FE020E931E0F9013197F1F70197BE
:100DF000D9F781E066EC71E04CE251E00E94830992
:100E000082E069EC72E04CE251E00E94830983E0E9
:100E100061E771E04CE251E00E94830984E066EBF7
:100E200072E04CE251E00E94830985E066EF71E0D8
:100E30004CE251E00E94830986E061E072E04CE2FE
:100E400051E00E94830980EA9FE020E931E0F90146
:100E50003197F1F70197D9F787E067E872E04CE244
:100E600051E00E94830988E066E272E04CE251E0C2
:100E70000E94830989E06EEF71E04CE251E00E942C
:100E800083098AE06FE572E04CE251E00E94830939
:100E900080EA9FE020E931E0F9013197F1F701970D
:100EA000D9F780E090E060E070E00E94ED0381E01F
:100EB00066EC71E04CE251E00E94830982E06BEE47
:100EC00072E04CE251E00E94830983E062EF71E03E
:100ED0004CE251E00E94830984E067E173E04CE258
:100EE00051E00E94830985E061EE71E04CE251E03F
:100EF0000E94830986E065E072E04CE251E00E94C6
:100F0000830987E06DE372E04CE251E00E948309BF
:100F100088E06EED71E04CE251E00E94830989E0C7
:100F200068EB71E04CE251E00E9483098AE063E2E1
:100F300072E04CE251E00E94830908958F929F92E3
:100F4000AF92BF92CF92DF92EF92FF921F93CF9317
:100F5000DF930E94170B0E948D0B8FEF8ABB8BBB18
:100F600084BB85BBF89411E0812F60E070E04FEF07
:100F700053E00E942A091F5F1B30B1F78BE060E04D
:100F800070E040E050E00E942A098CE060E070E0F0
:100F900040E050E00E942A098DE060E070E040E00F
:100FA00050E00E942A098EE060E070E040E050E0EE
:100FB0000E942A0980E197E220E931E0F9013197A6
:100FC000F1F70197D9F70E941A0181E061E171E020
:100FD0004CE251E00E94830982E066E672E04CE256
:100FE00051E00E94830983E06CE972E04CE251E039
:100FF0000E94830984E069EB72E04CE251E00E94B8
:10100000830985E069E572E04CE251E00E948309C2
:1010100086E06BE972E04CE251E00E94830980E2D5
:101020009EE420E931E0F9013197F1F70197D9F712
:10103000C0E0D0E088249924AA24BB24CC24DD2459
:10104000A0E9EA2EA1E0FA2E0E94600B182F873645
:1010500009F486C08836C8F4833309F451C0843358
:1010600050F4813309F43EC0823308F057C0803316
:1010700009F0E7C029C0883309F466C0833609F453
:101080007FC0853309F0DDC08FC08D3609F4B5C04F
:101090008E3650F48A3609F49BC08B3609F4A0C012
:1010A000883609F0CEC056C0823709F473C0833742
:1010B00020F4813709F0C5C0A3C0843709F48DC07E
:1010C0008A3709F0BEC09FC084E492E068EA7DEFF1
:1010D0000E94ED038CEB92E0F7013197F1F7019755
:1010E000D9F729C08CEB9DEF68E572E00E94ED0313
:1010F0008CEB92E0F7013197F1F70197D9F71BC01C
:1011000084EF91E064EF71E00E94ED038CEB92E0DC
:10111000F7013197F1F70197D9F70DC08CE09EEFF9
:101120006CE07EEF0E94ED038CEB92E0F7013197CB
:10113000F1F70197D9F780E090E060E070E00E945D
:10114000ED03C0E0D0E07DC0209709F07AC00E9496
:10115000AE0177C0209709F074C00E94980171C059
:101160000894811C911CC40163E070E00E949B0BF9
:10117000019709F066C00E948500C1E0D0E061C01F
:10118000AD9880E197E2F7013197F1F70197D9F730
:10119000AD9A57C0AC9880E197E2F7013197F1F72B
:1011A0000197D9F7AC9A4DC00894C11CD11C81E0BD
:1011B000C816D10409F045C0AF9880E197E2F70165
:1011C0003197F1F70197D9F7AF9A0E947D0239C0A4
:1011D0002097B9F50E94330234C00E94490231C001
:1011E0000894A11CB11CC50163E070E00E949B0B38
:1011F000019739F50E94080424C00E941D0221C0F5
:101200000E94C4011EC00E94400188E592E068EA85
:101210007DEF0E94ED0380E49CE9F7013197F1F73F
:101220000197D9F780E090E060E070E00E94ED0364
:101230000E941A0188E99AE3F7013197F1F70197C3
:10124000D9F7812F90E00E94580BFECE5D9BFECF18
:101250008CB90895E82F84E04030580710F04FEF24
:1012600053E09B0184E06030780710F02FEF33E00B
:10127000652F942F432F809165008F7E80936500AA
:10128000809165008860809365005E9A5D9BFECFCB
:101290008FEF8CB95D9BFECF8FEF8CB95D9BFECF3E
:1012A000ECB95D9BFECF87E08CB95D9BFECF83E000
:1012B0008CB95D9BFECF86E08CB95D9BFECF2CB9CF
:1012C0005D9BFECF4CB95D9BFECF9CB95D9BFECF75
:1012D0006CB95D9BFECFE05FE20FE90FE40FE60F14
:1012E000E095ECB95E9BFECF8091650080618093B4
:1012F000650080916500877F8093650080E49FE1B1
:101300000197F1F70895E82F84E04030580710F076
:101310004FEF53E09B0184E06030780710F02FEF2F
:1013200033E0652F942F432F809165008F7E80934B
:101330006500809165008860809365005E9A5D9B82
:10134000FECF8FEF8CB95D9BFECF8FEF8CB95D9B8D
:10135000FECFECB95D9BFECF87E08CB95D9BFECFE5
:1013600083E08CB95D9BFECF8EE18CB95D9BFECF97
:101370002CB95D9BFECF4CB95D9BFECF9CB95D9BAC
:10138000FECF6CB95D9BFECFE85DE20FE90FE40F85
:10139000E60FE095ECB95E9BFECF80916500806121
:1013A0008093650080916500877F8093650080E46D
:1013B0009FE10197F1F70895982F809165008F7E46
:1013C00080936500809165008860809365005E9AD7
:1013D0005D9BFECF8FEF8CB95D9BFECF8FEF8CB9FD
:1013E0005D9BFECF9CB95D9BFECF87E08CB95D9B7A
:1013F000FECF84E08CB95D9BFECF8EE18CB95D9B06
:10140000FECF6CB95D9BFECF7CB95D9BFECF4CB926
:101410005D9BFECF5CB95D9BFECF975D960F940FF1
:10142000970F950F90959CB95E9BFECF80916500BC
:10143000877F80936500809165008061809365005F
:1014400080E49FE10197F1F70895809165008F7E18
:1014500080936500809165008860809365005E9A46
:101460005D9BFECF8FEF8CB95D9BFECF8FEF8CB96C
:101470005D9BFECF8EEF8CB95D9BFECF82E08CB979
:101480005D9BFECF85E08CB95D9BFECF8AEF8CB96A
:101490005E9BFECF80916500877F80936500809181
:1014A000650080618093650080E49FE10197F1F71A
:1014B0000895482F77FF06C088279927861B970B2A
:1014C00051E002C0CB0150E09C0184E0203038079D
:1014D00010F02FEF33E0952F990F990F80E0822BBA
:1014E000932B292F982F809165008F7E8093650024
:1014F000809165008860809365005E9A5D9BFECF59
:101500008FEF8CB95D9BFECF8FEF8CB95D9BFECFCB
:101510004CB95D9BFECF85E08CB95D9BFECF83E02F
:101520008CB95D9BFECF80E28CB95D9BFECF9CB9F0
:101530005D9BFECF2CB95D9BFECF485D490F420FEE
:1015400040954CB95E9BFECF809165008061809391
:10155000650080916500877F8093650080E49FE14E
:101560000197F1F708958F929F92AF92BF92CF9219
:10157000DF92EF92FF920F931F93FC016B015A01D0
:10158000490181E0BF014CE251E00E94830982E001
:10159000B6014CE251E00E94830983E0B5014CE2C0
:1015A00051E00E94830984E0B4014CE251E00E94C2
:1015B000830985E0B8014CE251E00E94830986E08E
:1015C000B7014CE251E00E94830980E197E220E9F3
:1015D00031E0F9013197F1F70197D9F71F910F9198
:1015E000FF90EF90DF90CF90BF90AF909F908F9043
:1015F000089582B18F7C82B983B1806383B90895E5
:10160000109261001092620080E487B986E886B982
:101610000895806487B9369A349BFECF94B185B122
:10162000349A382F20E0290F311DC90108958FEF1A
:1016300084BB87B3806687BB82EA8FBD8AE18EBD9B
:1016400010927A008CE291E097BD86BD08959C01CE
:1016500097FD0EC077FD03C0A99AA89818C00097FF
:1016600071F085B3836085BB709561957F4F0FC026
:101670001616170624F485B38C7F85BB05C0A89A7F
:10168000A998709561957F4F309521953F4F3BBD4F
:101690002ABD79BD68BD089510929B0088E18093B2
:1016A0009A0086E080939D0087E6809399000895D4
:1016B000982F80919B0085FFFCCF90939C0008950C
:1016C00080919B0087FFFCCF80919C00089582B1A0
:1016D0008F7C82B983B1806383B982E08BB9109229
:1016E000900081E089B988E18AB986E0809395000D
:1016F00010981898119A199AA4E6B0E08C91886015
:101700008C93E5E6F0E08081877F80838C91806117
:101710008C9380818061808308950E94670B109272
:101720009B0088E180939A0086E080939D0087E685
:1017300080939900089597FB092E07260AD077FD1C
:1017400004D00CD006D000201AF4709561957F4F1C
:101750000895F6F7909581959F4F0895AA1BBB1B9E
:1017600051E107C0AA1FBB1FA617B70710F0A61BA1
:10177000B70B881F991F5A95A9F780959095BC01C2
:08178000CD010895F894FFCF9C
:00000001FF
