:100000000C9446000C945D000C945D000C945D0013
:100010000C945D000C945D000C945D000C945D00EC
:100020000C945D000C945D000C945D000C945D00DC
:100030000C945D000C945D000C945D000C945D00CC
:100040000C945D000C945D000C945D000C945D00BC
:100050000C945D000C945D000C945D000C945D00AC
:100060000C945D000C945D000C945D000C945D009C
:100070000C945D000C945D000C945D000C945D008C
:100080000C945D000C945D000C945D0011241FBE67
:10009000CFEFD0E1DEBFCDBF11E0A0E0B1E0E8E0FE
:1000A000F6E100E00BBF02C007900D92A030B1074F
:1000B000D9F70E94E1060C94020B0C94000089E031
:1000C00060E973E04CE251E00E94C3088AE066E513
:1000D00070E04CE251E00E94C3088BE06EE470E0F7
:1000E0004CE251E00E94C3088CE061EB73E04CE20B
:1000F00051E00E94C30888E59BE120E931E0F90165
:100100003197F1F70197D9F7089583E067E073E03D
:100110004CE251E00E94C30884E067ED71E04CE2DC
:1001200051E00E94C30880E29EE420E931E0F90139
:100130003197F1F70197D9F781E06CEE71E04CE26D
:1001400051E00E94C30882E06BE971E04CE251E0AB
:100150000E94C30883E06CEE72E04CE251E00E9422
:10016000C30884E067EF71E04CE251E00E94C308ED
:1001700085E064E672E04CE251E00E94C30886E04C
:1001800064E772E04CE251E00E94C30880E29EE422
:1001900020E931E0F9013197F1F70197D9F781E0D2
:1001A00062EB71E04CE251E00E94C30882E06FE62E
:1001B00071E04CE251E00E94C30883E069E673E01D
:1001C0004CE251E00E94C30884E06BE771E04CE22E
:1001D00051E00E94C30885E06BE672E04CE251E01A
:1001E0000E94C30886E061EA72E04CE251E00E949E
:1001F000C30888E99AE320E931E0F9013197F1F782
:100200000197D9F7089587E06DE072E04CE251E084
:100210000E94C30888E06EEF71E04CE251E00E945A
:10022000C30889E066ED71E04CE251E00E94C3082A
:100230008AE06AEF71E04CE251E00E94C30888E86E
:1002400093E120E931E0F9013197F1F70197D9F70E
:10025000089581E066E372E04CE251E00E94C30839
:1002600082E064E371E04CE251E00E94C30883E065
:1002700066E471E04CE251E00E94C30884E06FE95B
:1002800073E04CE251E00E94C30885E06BE472E049
:100290004CE251E00E94C30886E06FE272E04CE25B
:1002A00051E00E94C30880E197E220E931E0F901C2
:1002B0003197F1F70197D9F7089581E065E572E08C
:1002C0004CE251E00E94C30882E061E073E04CE23E
:1002D00051E00E94C30883E065ED71E044E650E020
:1002E0000E94C30884E067E173E044E650E00E94A6
:1002F000C30885E065E071E04CE251E00E94C3086C
:1003000086E062E372E04CE251E00E94C308089587
:1003100084E067E173E044E650E00E94C30885E0B2
:1003200065E071E04CE251E00E94C30886E062E3C0
:1003300072E04CE251E00E94C308089581E065E557
:1003400072E04CE251E00E94C30882E061E073E099
:100350004CE251E00E94C30883E065ED71E044E6A1
:1003600050E00E94C308089587E063EC71E04CE21E
:1003700051E00E94C30888E065E372E04CE251E07E
:100380000E94C30889E064EA71E04CE251E00E94F7
:10039000C3088AE06BE272E04CE251E00E94C308BD
:1003A00088EF9AE220E931E0F9013197F1F70197FE
:1003B000D9F781E066E371E04CE251E00E94C308A6
:1003C00082E065EA71E04CE251E00E94C30883E0FC
:1003D0006CE972E04CE251E00E94C30884E062E202
:1003E00072E04CE251E00E94C30885E064E872E0EC
:1003F0004CE251E00E94C30886E06BEE72E04CE2F2
:1004000051E00E94C30880E29EE420E931E0F90156
:100410003197F1F70197D9F7089584E06BEC71E01B
:100420004CE251E00E94C30885E06BE472E04CE2CC
:1004300051E00E94C30886E06FE272E04CE251E0B6
:100440000E94C308089581E066E372E04CE251E047
:100450000E94C30882E065EA71E04CE251E00E942C
:10046000C30883E060E273E04CE251E00E94C308FD
:10047000089581E062EB71E04CE251E00E94C30814
:1004800082E065EA71E04CE251E00E94C30883E03B
:100490006EEE72E04CE251E00E94C30880E197E208
:1004A00020E931E0F9013197F1F70197D9F781E0BF
:1004B00062EB71E04CE251E00E94C30882E063E32A
:1004C00072E04CE251E00E94C30883E06EEE72E0FD
:1004D0004CE251E00E94C3080895EF92FF920F93FF
:1004E0001F938C017B018DE0B8010E949909109542
:1004F00001951F4F8EE0B8010E9499098BE0B7016A
:100500000E949909F094E194F108F3948CE0B7010A
:100510000E9499091F910F91FF90EF90089581E03B
:100520006EE172E04CE251E00E94C30882E061E1BA
:1005300072E04CE251E00E94C30883E068EC71E095
:100540004CE251E00E94C30884E06BE173E04CE2AE
:1005500051E00E94C30885E061EE71E04CE251E099
:100560000E94C30886E06EE472E04CE251E00E9413
:10057000C30887E069E172E04CE251E00E94C308E1
:1005800088E06CEE71E04CE251E00E94C30889E023
:1005900062EF71E04CE251E00E94C3088AE069EE2C
:1005A00071E04CE251E00E94C30880EA9FE020E93C
:1005B00031E0F9013197F1F70197D9F78CE291E039
:1005C0006CE271E00E946D0281E06EE172E04CE24B
:1005D00051E00E94C30882E061E172E04CE251E028
:1005E0000E94C30883E06EE671E04CE251E00E9495
:1005F000C30884E06FEA72E04CE251E00E94C30855
:1006000085E061EE71E04CE251E00E94C30886E0B3
:100610006EE472E04CE251E00E94C30880EA9FE081
:1006200020E931E0F9013197F1F70197D9F787E037
:1006300069EB71E04CE251E00E94C30888E06BE492
:1006400072E04CE251E00E94C30889E066E072E08B
:100650004CE251E00E94C3088AE065ED71E04CE293
:1006600051E00E94C30888E59BE120E931E0F901EF
:100670003197F1F70197D9F781E06EE172E04CE232
:1006800051E00E94C30882E061E172E04CE251E077
:100690000E94C30883E068EC71E04CE251E00E94E4
:1006A000C30884E06BE173E04CE251E00E94C308B0
:1006B00085E061EE71E04CE251E00E94C30886E003
:1006C0006EE472E04CE251E00E94C30887E069E109
:1006D00072E04CE251E00E94C30888E06CEE71E0E9
:1006E0004CE251E00E94C30889E062EF71E04CE205
:1006F00051E00E94C3088AE069EE71E04CE251E0EB
:100700000E94C30888EB9BE020E931E0F9013197B2
:10071000F1F70197D9F781E06EE172E04CE251E028
:100720000E94C30882E061E172E04CE251E00E9465
:10073000C30883E06FE272E04CE251E00E94C3081C
:1007400084E06BE773E04CE251E00E94C30885E06F
:1007500061EE71E04CE251E00E94C30886E06EE475
:1007600072E04CE251E00E94C30880EA9FE020E979
:1007700031E0F9013197F1F70197D9F787E06EE49D
:1007800072E04CE251E00E94C30888E069EC71E03D
:100790004CE251E00E94C30889E06BEA71E04CE250
:1007A00051E00E94C3088AE06CE272E04CE251E042
:1007B0000E94C30888E59BE120E931E0F901319707
:1007C000F1F70197D9F781E06EE172E04CE251E078
:1007D0000E94C30882E061E172E04CE251E00E94B5
:1007E000C30883E068EC71E04CE251E00E94C3086A
:1007F00084E06BE173E04CE251E00E94C30885E0C5
:1008000061EE71E04CE251E00E94C30886E06EE4C4
:1008100072E04CE251E00E94C30887E069E172E0B7
:100820004CE251E00E94C30888E06CEE71E04CE2BB
:1008300051E00E94C30889E062EF71E04CE251E0B0
:100840000E94C3088AE069EE71E04CE251E00E9428
:10085000C30880EA9FE020E931E0F9013197F1F720
:100860000197D9F78CE291E06CE271E00E946D0291
:1008700081E06EE172E04CE251E00E94C30882E048
:1008800061E172E04CE251E00E94C30883E06EE651
:1008900071E04CE251E00E94C30884E06FEA72E02C
:1008A0004CE251E00E94C30885E061EE71E04CE249
:1008B00051E00E94C30886E06EE472E04CE251E031
:1008C0000E94C30880EA9FE020E931E0F9013197F6
:1008D000F1F70197D9F787E069EB71E04CE251E05D
:1008E0000E94C30888E06BE472E04CE251E00E9491
:1008F000C30889E066E072E04CE251E00E94C30860
:100900008AE065ED71E04CE251E00E94C30888E5A1
:100910009BE120E931E0F9013197F1F70197D9F72F
:1009200081E06EE172E04CE251E00E94C30882E097
:1009300061E172E04CE251E00E94C30883E068ECA0
:1009400071E04CE251E00E94C30884E06BE173E087
:100950004CE251E00E94C30885E061EE71E04CE298
:1009600051E00E94C30886E06EE472E04CE251E080
:100970000E94C30887E069E172E04CE251E00E9406
:10098000C30888E06CEE71E04CE251E00E94C308BD
:1009900089E062EF71E04CE251E00E94C3088AE016
:1009A00069EE71E04CE251E00E94C30888EB9BE0E5
:1009B00020E931E0F9013197F1F70197D9F781E0AA
:1009C0006EE172E04CE251E00E94C30882E061E116
:1009D00072E04CE251E00E94C30883E06FE272E0F3
:1009E0004CE251E00E94C30884E06BE773E04CE204
:1009F00051E00E94C30885E061EE71E04CE251E0F5
:100A00000E94C30886E06EE472E04CE251E00E946E
:100A1000C30880EA9FE020E931E0F9013197F1F75E
:100A20000197D9F787E06EE472E04CE251E00E9452
:100A3000C30888E069EC71E04CE251E00E94C30811
:100A400089E06BEA71E04CE251E00E94C3088AE061
:100A50006CE272E04CE251E00E94C30888E59BE141
:100A600020E931E0F9013197F1F70197D9F781E0F9
:100A70006EE172E04CE251E00E94C30882E061E165
:100A800072E04CE251E00E94C30883E068EC71E040
:100A90004CE251E00E94C30884E06BE173E04CE259
:100AA00051E00E94C30885E061EE71E04CE251E044
:100AB0000E94C30886E06EE472E04CE251E00E94BE
:100AC000C30887E069E172E04CE251E00E94C3088C
:100AD00088E06CEE71E04CE251E00E94C30889E0CE
:100AE00062EF71E04CE251E00E94C3088AE069EED7
:100AF00071E04CE251E00E94C30880EA9FE020E9E7
:100B000031E0F9013197F1F70197D9F78CE291E0E3
:100B10006CE271E00E946D0281E06EE172E04CE2F5
:100B200051E00E94C30882E061E172E04CE251E0D2
:100B30000E94C30883E06EE671E04CE251E00E943F
:100B4000C30884E06FEA72E04CE251E00E94C308FF
:100B500085E061EE71E04CE251E00E94C30886E05E
:100B60006EE472E04CE251E00E94C30880EA9FE02C
:100B700020E931E0F9013197F1F70197D9F787E0E2
:100B800069EB71E04CE251E00E94C30888E06BE43D
:100B900072E04CE251E00E94C30889E066E072E036
:100BA0004CE251E00E94C3088AE065ED71E04CE23E
:100BB00051E00E94C30888E59BE120E931E0F9019A
:100BC0003197F1F70197D9F781E06EE172E04CE2DD
:100BD00051E00E94C30882E061E172E04CE251E022
:100BE0000E94C30883E068EC71E04CE251E00E948F
:100BF000C30884E06BE173E04CE251E00E94C3085B
:100C000085E061EE71E04CE251E00E94C30886E0AD
:100C10006EE472E04CE251E00E94C30887E069E1B3
:100C200072E04CE251E00E94C30888E06CEE71E093
:100C30004CE251E00E94C30889E062EF71E04CE2AF
:100C400051E00E94C3088AE069EE71E04CE251E095
:100C50000E94C30888EB9BE020E931E0F90131975D
:100C6000F1F70197D9F781E06EE172E04CE251E0D3
:100C70000E94C30882E061E172E04CE251E00E9410
:100C8000C30883E06FE272E04CE251E00E94C308C7
:100C900084E06BE773E04CE251E00E94C30885E01A
:100CA00061EE71E04CE251E00E94C30886E06EE420
:100CB00072E04CE251E00E94C30880EA9FE020E924
:100CC00031E0F9013197F1F70197D9F787E06EE448
:100CD00072E04CE251E00E94C30888E069EC71E0E8
:100CE0004CE251E00E94C30889E06BEA71E04CE2FB
:100CF00051E00E94C3088AE06CE272E04CE251E0ED
:100D00000E94C30888E59BE120E931E0F9013197B1
:100D1000F1F70197D9F781E06EE172E04CE251E022
:100D20000E94C30882E061E172E04CE251E00E945F
:100D3000C30883E068EC71E04CE251E00E94C30814
:100D400084E06BE173E04CE251E00E94C30885E06F
:100D500061EE71E04CE251E00E94C30886E06EE46F
:100D600072E04CE251E00E94C30887E069E172E062
:100D70004CE251E00E94C30888E06CEE71E04CE266
:100D800051E00E94C30889E062EF71E04CE251E05B
:100D90000E94C3088AE069EE71E04CE251E00E94D3
:100DA000C30888EB9BE020E931E0F9013197F1F7C6
:100DB0000197D9F780E090E060E070E00E946D025A
:100DC0000895AF92BF92CF92DF92EF92FF921F935E
:100DD000CF93DF930E94570A0E94CD0A8FEF8ABB00
:100DE0008BBB84BB85BBF89411E0812F60E070E081
:100DF0004FEF53E00E946A081F5F1B30B1F78BE092
:100E000060E070E040E050E00E946A088CE060E042
:100E100070E040E050E00E946A088DE060E070E021
:100E200040E050E00E946A088EE060E070E040E040
:100E300050E00E946A0880E197E220E931E0F90180
:100E40003197F1F70197D9F787E063EC71E04CE255
:100E500051E00E94C30888E065E372E04CE251E093
:100E60000E94C30889E064EA71E04CE251E00E940C
:100E7000C3088AE06BE272E04CE251E00E94C308D2
:100E800088EF9AE220E931E0F9013197F1F7019713
:100E9000D9F781E066E371E04CE251E00E94C308BB
:100EA00082E06BE871E04CE251E00E94C30883E00D
:100EB0006CE972E04CE251E00E94C30884E062E217
:100EC00072E04CE251E00E94C30885E064E872E001
:100ED0004CE251E00E94C30886E06BEE72E04CE207
:100EE00051E00E94C30880E29EE420E931E0F9016C
:100EF0003197F1F70197D9F7C0E0D0E0AA24BB24DD
:100F0000CC24DD2480E9E82E81E0F82E0E94A00A9E
:100F1000182F883609F479C08936C0F4833309F470
:100F200058C0843348F48133C1F1823308F043C0A0
:100F3000803309F0C6C023C0833609F47CC08736ED
:100F400009F469C0883309F0BCC059C0813709F47D
:100F5000A0C0823750F48B3609F489C08D3609F46D
:100F600093C08A3609F0ADC07AC0843709F47CC0DA
:100F70008A3709F491C0823709F0A3C066C088E5BA
:100F800092E067E672E00E946D028CEB92E0F7015E
:100F90003197F1F70197D9F729C088EA9DEF6EE9FB
:100FA0007DEF0E946D028CEB92E0F7013197F1F733
:100FB0000197D9F71BC08CE09EEF64EF71E00E94AF
:100FC0006D028CEB92E0F7013197F1F70197D9F7B9
:100FD0000DC084EF91E06CE07EEF0E946D028CEB1F
:100FE00092E0F7013197F1F70197D9F780E090E0AF
:100FF00060E070E00E946D02C0E0D0E062C0209727
:1010000009F05FC00E949E015CC0209709F059C0A2
:101010000E94880156C00894A11CB11CC50163E060
:1010200070E00E94DB0A019709F04BC00E94850026
:10103000C1E0D0E046C0AD9880E197E2F70131977A
:10104000F1F70197D9F7AD9A3CC0AC9880E197E2EF
:10105000F7013197F1F70197D9F7AC9A32C0209791
:1010600081F50E9423022DC00E9439022AC00894F3
:10107000C11CD11CC60163E070E00E94DB0A01972D
:1010800001F50E948F021DC02097D9F40E940D0225
:1010900018C00E94B40115C00E9429018AE892E09C
:1010A0006AE872E00E946D0280E49CE9F7013197E2
:1010B000F1F70197D9F780E090E060E070E00E94DE
:1010C0006D02812F90E00E94980A20CF5D9BFECF99
:1010D0008CB90895E82F84E04030580710F04FEFA6
:1010E00053E09B0184E06030780710F02FEF33E08D
:1010F000652F942F432F809165008F7E809365002C
:10110000809165008860809365005E9A5D9BFECF4C
:101110008FEF8CB95D9BFECF8FEF8CB95D9BFECFBF
:10112000ECB95D9BFECF87E08CB95D9BFECF83E081
:101130008CB95D9BFECF86E08CB95D9BFECF2CB950
:101140005D9BFECF4CB95D9BFECF9CB95D9BFECFF6
:101150006CB95D9BFECFE05FE20FE90FE40FE60F95
:10116000E095ECB95E9BFECF809165008061809335
:10117000650080916500877F8093650080E49FE132
:101180000197F1F70895E82F84E04030580710F0F8
:101190004FEF53E09B0184E06030780710F02FEFB1
:1011A00033E0652F942F432F809165008F7E8093CD
:1011B0006500809165008860809365005E9A5D9B04
:1011C000FECF8FEF8CB95D9BFECF8FEF8CB95D9B0F
:1011D000FECFECB95D9BFECF87E08CB95D9BFECF67
:1011E00083E08CB95D9BFECF8EE18CB95D9BFECF19
:1011F0002CB95D9BFECF4CB95D9BFECF9CB95D9B2E
:10120000FECF6CB95D9BFECFE85DE20FE90FE40F06
:10121000E60FE095ECB95E9BFECF809165008061A2
:101220008093650080916500877F8093650080E4EE
:101230009FE10197F1F70895982F809165008F7EC7
:1012400080936500809165008860809365005E9A58
:101250005D9BFECF8FEF8CB95D9BFECF8FEF8CB97E
:101260005D9BFECF9CB95D9BFECF87E08CB95D9BFB
:10127000FECF84E08CB95D9BFECF8EE18CB95D9B87
:10128000FECF6CB95D9BFECF7CB95D9BFECF4CB9A8
:101290005D9BFECF5CB95D9BFECF975D960F940F73
:1012A000970F950F90959CB95E9BFECF809165003E
:1012B000877F8093650080916500806180936500E1
:1012C00080E49FE10197F1F70895809165008F7E9A
:1012D00080936500809165008860809365005E9AC8
:1012E0005D9BFECF8FEF8CB95D9BFECF8FEF8CB9EE
:1012F0005D9BFECF8EEF8CB95D9BFECF82E08CB9FB
:101300005D9BFECF85E08CB95D9BFECF8AEF8CB9EB
:101310005E9BFECF80916500877F80936500809102
:10132000650080618093650080E49FE10197F1F79B
:101330000895482F77FF06C088279927861B970BAB
:1013400051E002C0CB0150E09C0184E0203038071E
:1013500010F02FEF33E0952F990F990F80E0822B3B
:10136000932B292F982F809165008F7E80936500A5
:10137000809165008860809365005E9A5D9BFECFDA
:101380008FEF8CB95D9BFECF8FEF8CB95D9BFECF4D
:101390004CB95D9BFECF85E08CB95D9BFECF83E0B1
:1013A0008CB95D9BFECF80E28CB95D9BFECF9CB972
:1013B0005D9BFECF2CB95D9BFECF485D490F420F70
:1013C00040954CB95E9BFECF809165008061809313
:1013D000650080916500877F8093650080E49FE1D0
:1013E0000197F1F708958F929F92AF92BF92CF929B
:1013F000DF92EF92FF920F931F93FC016B015A0152
:10140000490181E0BF014CE251E00E94C30882E043
:10141000B6014CE251E00E94C30883E0B5014CE202
:1014200051E00E94C30884E0B4014CE251E00E9404
:10143000C30885E0B8014CE251E00E94C30886E091
:10144000B7014CE251E00E94C30880E197E220E935
:1014500031E0F9013197F1F70197D9F71F910F9119
:10146000FF90EF90DF90CF90BF90AF909F908F90C4
:10147000089582B18F7C82B983B1806383B9089566
:10148000109261001092620080E487B986E886B904
:101490000895806487B9369A349BFECF94B185B1A4
:1014A000349A382F20E0290F311DC90108958FEF9C
:1014B00084BB87B3806687BB82EA8FBD8AE18EBD1D
:1014C00010927A008CE291E097BD86BD08959C0150
:1014D00097FD0EC077FD03C0A99AA89818C0009781
:1014E00071F085B3836085BB709561957F4F0FC0A8
:1014F0001616170624F485B38C7F85BB05C0A89A01
:10150000A998709561957F4F309521953F4F3BBDD0
:101510002ABD79BD68BD089510929B0088E1809333
:101520009A0086E080939D0087E680939900089555
:10153000982F80919B0085FFFCCF90939C0008958D
:1015400080919B0087FFFCCF80919C00089582B121
:101550008F7C82B983B1806383B982E08BB91092AA
:10156000900081E089B988E18AB986E0809395008E
:1015700010981898119A199AA4E6B0E08C91886096
:101580008C93E5E6F0E08081877F80838C91806199
:101590008C9380818061808308950E94A70A1092B5
:1015A0009B0088E180939A0086E080939D0087E607
:1015B00080939900089597FB092E07260AD077FD9E
:1015C00004D00CD006D000201AF4709561957F4F9E
:1015D0000895F6F7909581959F4F0895AA1BBB1B20
:1015E00051E107C0AA1FBB1FA617B70710F0A61B23
:1015F000B70B881F991F5A95A9F780959095BC0144
:08160000CD010895F894FFCF1D
:00000001FF
