:100000000C9446000C945D000C945D000C945D0013
:100010000C945D000C945D000C945D000C945D00EC
:100020000C945D000C945D000C945D000C945D00DC
:100030000C945D000C945D000C945D000C945D00CC
:100040000C945D000C945D000C945D000C945D00BC
:100050000C945D000C945D000C945D000C945D00AC
:100060000C945D000C945D000C945D000C945D009C
:100070000C945D000C945D000C945D000C945D008C
:100080000C945D000C945D000C945D0011241FBE67
:10009000CFEFD0E1DEBFCDBF11E0A0E0B1E0E0E9FD
:1000A000FAE000E00BBF02C007900D92A230B1074A
:1000B000D9F70E9404020C9446050C94000081E0DC
:1000C00090E06AE571E04CE251E00E94CF0382E0EB
:1000D00090E06FE772E04CE251E00E94CF0383E0D2
:1000E00090E062E271E04CE251E00E94CF0384E0D4
:1000F00090E064E172E04CE251E00E94CF030E9484
:10010000180488E59BE120E931E0F9013197F1F726
:100110000197D9F7089585E090E065ED72E04CE233
:1001200051E00E94CF0386E090E062EE70E04CE286
:1001300051E00E94CF0387E090E067EB72E04CE271
:1001400051E00E94CF0388E090E06CEE71E04CE259
:1001500051E00E94CF030E94180488E59BE120E94A
:1001600031E0F9013197F1F70197D9F708954091FE
:1001700000015091010181E06CEB73E00E94760375
:10018000409100015091010182E067E772E00E9416
:100190007603409100015091010183E068ED71E028
:1001A0000E947603409100015091010184E065E1D5
:1001B00072E00E947603409100015091010185E0B8
:1001C00060E370E00E9476034091000150910101CC
:1001D00086E063E873E00E94760308954091000191
:1001E0005091010181E06CEB73E00E947603409135
:1001F00000015091010182E067E772E00E947603FE
:10020000409100015091010183E068ED71E00E948E
:1002100076030895409100015091010184E065E169
:1002200072E00E947603409100015091010185E047
:1002300060E370E00E94760340910001509101015B
:1002400086E063E873E00E94760308954091000120
:100250005091010181E069E773E00E9476034091CB
:1002600000015091010182E067E772E00E9476038D
:10027000409100015091010183E068ED71E00E941E
:100280007603409100015091010184E065E172E044
:100290000E947603409100015091010185E062E9DE
:1002A00070E00E947603409100015091010186E0C8
:1002B00065E673E00E947603089540910001509135
:1002C000010184E065E172E00E9476034091000143
:1002D0005091010185E062E970E00E94760340914F
:1002E00000015091010186E065E673E00E9476030B
:1002F0000895409100015091010181E069E773E0A8
:100300000E947603409100015091010182E067E76D
:1003100072E00E947603409100015091010183E058
:1003200068ED71E00E9476030895409100015091BC
:10033000010181E060ED72E00E94760340910001CE
:100340005091010182E061E173E00E9476034091E7
:1003500000015091010183E06FEB71E00E94760390
:10036000409100015091010184E066EF71E00E942C
:100370007603409100015091010185E064E571E050
:100380000E947603409100015091010186E063E7ED
:1003900073E00E947603089540910001509101019D
:1003A00084E066EF71E00E94760340910001509175
:1003B000010185E064E571E00E947603409100014F
:1003C0005091010186E063E773E00E94760308958F
:1003D000409100015091010181E060ED72E00E94C6
:1003E0007603409100015091010182E061E173E0E8
:1003F0000E947603409100015091010183E06FEB70
:1004000071E00E94760308951F93CF93DF930E94BB
:10041000C4040E9438058FEF8ABB80EF84BBF89438
:1004200081E060E070E04FEF53E00E941D0382E046
:1004300060E070E04FEF53E00E941D0383E060E056
:1004400070E04FEF53E00E941D0384E060E070E035
:100450004FEF53E00E941D0385E060E070E04FEF36
:1004600053E00E941D0386E060E070E04FEF53E030
:100470000E941D0380E197E220E931E0F901319704
:10048000F1F70197D9F70E94950180E197E220E901
:1004900031E0F9013197F1F70197D9F7C0E9D1E0DF
:1004A0000E940B05182F893309F4A6C08A33A8F4DB
:1004B000823309F447C0833330F4803339F1813318
:1004C00009F0B2C031C0843309F458C0843308F451
:1004D00047C0853309F0A8C09CC08D3609F4A2C07E
:1004E0008E3650F4893609F48AC08A3609F494C0ED
:1004F000853609F099C093C0833709F45BC084370F
:1005000009F466C0803709F08FC046C088E790E0E4
:1005100068E770E00E94D4048CEB92E0FE01319712
:10052000F1F70197D9F761C088E89FEF68E87FEF9E
:100530000E94D4048CEB92E0FE013197F1F7019711
:10054000D9F753C088E89FEF68E770E00E94D404B1
:1005500088E592E0FE013197F1F70197D9F745C0A0
:1005600088E790E068E87FEF0E94D40488E592E095
:10057000FE013197F1F70197D9F737C08CED90E084
:100580006CED70E00E94D4048CEB92E0FE01319798
:10059000F1F70197D9F729C086E59FEF66E57FEF70
:1005A0000E94D4048CEB92E0FE013197F1F70197A1
:1005B000D9F71BC08EED9EEF6EED7EEF0E94D40446
:1005C00088E592E0FE013197F1F70197D9F70DC068
:1005D00082E291E062E271E00E94D40488E592E058
:1005E000FE013197F1F70197D9F780E090E060E0E4
:1005F00070E00E94D40418C00E94E80115C00E9457
:10060000CC0188E59BE1FE013197F1F70197D9F71D
:100610000BC00E94EE0008C00E94790105C00E9434
:100620000A0102C00E945D01812F90E00E94030533
:1006300037CF5D9BFECF8CB90895E82F84E0403022
:10064000580710F04FEF53E09B0184E060307807CB
:1006500010F02FEF33E0652F942F432F809165002A
:100660008F7E80936500809165008860809365002F
:100670005E9A5D9BFECF8FEF8CB95D9BFECF8FEFB7
:100680008CB95D9BFECFECB95D9BFECF87E08CB94A
:100690005D9BFECF83E08CB95D9BFECF86E08CB97D
:1006A0005D9BFECF2CB95D9BFECF4CB95D9BFECF11
:1006B0009CB95D9BFECF6CB95D9BFECFE05FE20F06
:1006C000E90FE40FE60FE095ECB95E9BFECF809159
:1006D000650080618093650080916500877F8093CD
:1006E000650080E49FE10197F1F70895E82F84E029
:1006F0004030580710F04FEF53E09B0184E060302A
:10070000780710F02FEF33E0652F942F432F80915F
:1007100065008F7E8093650080916500886080937E
:1007200065005E9A5D9BFECF8FEF8CB95D9BFECF1F
:100730008FEF8CB95D9BFECFECB95D9BFECF87E060
:100740008CB95D9BFECF83E08CB95D9BFECF8EE1C3
:100750008CB95D9BFECF2CB95D9BFECF4CB95D9BE8
:10076000FECF9CB95D9BFECF6CB95D9BFECFE85D73
:10077000E20FE90FE40FE60FE095ECB95E9BFECFC8
:100780008091650080618093650080916500877F1E
:100790008093650080E49FE10197F1F70895982F19
:1007A000809165008F7E80936500809165008860F0
:1007B000809365005E9A5D9BFECF8FEF8CB95D9B49
:1007C000FECF8FEF8CB95D9BFECF9CB95D9BFECFBA
:1007D00087E08CB95D9BFECF84E08CB95D9BFECF3A
:1007E0008EE18CB95D9BFECF6CB95D9BFECF7CB971
:1007F0005D9BFECF4CB95D9BFECF5CB95D9BFECF90
:10080000975D960F940F970F950F90959CB95E9BEF
:10081000FECF80916500877F8093650080916500A1
:1008200080618093650080E49FE10197F1F708956E
:10083000809165008F7E809365008091650088605F
:10084000809365005E9A5D9BFECF8FEF8CB95D9BB8
:10085000FECF8FEF8CB95D9BFECF8EEF8CB95D9B89
:10086000FECF82E08CB95D9BFECF85E08CB95D9BAD
:10087000FECF8AEF8CB95E9BFECF80916500877FAB
:10088000809365008091650080618093650080E4BD
:100890009FE10197F1F70895482F77FF06C0882759
:1008A0009927861B970B51E002C0CB0150E09C01B9
:1008B00084E02030380710F02FEF33E0952F990FA8
:1008C000990F80E0822B932B292F982F8091650020
:1008D0008F7E8093650080916500886080936500BD
:1008E0005E9A5D9BFECF8FEF8CB95D9BFECF8FEF45
:1008F0008CB95D9BFECF4CB95D9BFECF85E08CB97A
:100900005D9BFECF83E08CB95D9BFECF80E28CB90E
:100910005D9BFECF9CB95D9BFECF2CB95D9BFECF4E
:10092000485D490F420F40954CB95E9BFECF8091C8
:10093000650080618093650080916500877F80936A
:10094000650080E49FE10197F1F7089582B18F7C03
:1009500082B983B1806383B90895109261001092C7
:10096000620080E487B986E886B90895806487B913
:10097000369A349BFECF94B185B1349A382F20E05B
:10098000290F311DC901089580EF84BB87B38066AC
:1009900087BB82EA8FBD8AE18EBD10927A008CE21D
:1009A00091E097BD86BD08959C0197FD0DC077FD30
:1009B00003C080EA85BB16C0009761F080E685BB66
:1009C000709561957F4F0EC0161617061CF480E9CE
:1009D00085BB05C080E585BB709561957F4F3095DF
:1009E00021953F4F3BBD2ABD79BD68BD089510924A
:1009F0009B0088E180939A0086E080939D0087E6C3
:100A0000809399000895982F80919B0085FFFCCFDB
:100A100090939C00089580919B0087FFFCCF80916C
:100A20009C00089582B18F7C82B983B1806383B9C1
:100A300082E08BB91092900081E089B988E18AB98F
:100A400086E08093950010981898119A199AA4E658
:100A5000B0E08C9188608C93E5E6F0E08081877F40
:100A600080838C9180618C938081806180830895E4
:100A70000E94120510929B0088E180939A0086E004
:100A800080939D0087E6809399000895F894FFCFA6
:020A900026023C
:00000001FF
